:020000041000EA
:1000000000B5324B212058609868022188439860DF
:10001000D860186158612E4B002199600221596106
:100020000121F02299502B49196001219960352056
:1000300000F044F80222904214D00621196600F024
:1000400034F8196E01211966002018661A6600F04E
:100050002CF8196E196E196E052000F02FF8012189
:100060000842F9D1002199601B49196000215960AB
:100070001A491B48016001219960EB211966A021F2
:10008000196600F012F800219960164914480160C1
:100090000121996001BC002800D000471248134993
:1000A000086003C880F30888084703B5996A0420EC
:1000B0000142FBD001200142F8D103BD02B5186610
:1000C0001866FFF7F2FF186E186E02BD00000240BE
:1000D000000000180000070000035F00212200005C
:1000E000F4000018222000A00001001008ED00E03C
:1000F00000000000000000000000000074B24E7A12
:1001000000200420F7010010C3010010C5010010F9
:10011000C1010010C1010010C1010010C101001097
:10012000C1010010C1010010C1010010C701001081
:10013000C1010010C1010010C9010010CB01001065
:10014000CD010010CD010010CD010010CD01001037
:10015000CD010010CD010010CD010010CD01001027
:10016000CD010010CD010010CD010010CD01001017
:10017000CD010010CD010010CD010010CD01001007
:10018000CD010010CD010010CD010010CD010010F7
:10019000CD010010CD010010CD010010CD010010E7
:1001A000CD010010CD010010CD010010CD010010D7
:1001B000CD010010CD010010CD010010CD010010C7
:1001C00000BE00BE00BE00BE00BE00BEEFF3058054
:1001D000103800BEF2EB8871FC1C0010241D0010CA
:1001E0003802001090A31AE71E481F49086006C88D
:1001F00081F3088810471D480068002801D019487D
:10020000F3E70DA40ECC002902D000F012F8F9E7B4
:100210001749184A002000E001C19142FCD116495B
:100220008847164988471649884700BEFDE701C937
:1002300001C29A42FBD37047241D0010C000002069
:1002400040020020A41E0010000004200000042032
:10025000A41E001000100420001004200000000064
:10026000704700000000000008ED00E0000000D032
:10027000400200204006002015160010D102001098
:100280000D160010F8B5C04610B5064C2378002BAB
:1002900007D1054B002B02D0044800E000BF01232A
:1002A000237010BDC005002000000000C81B001016
:1002B000044B10B5002B03D00349044800E000BFF5
:1002C00010BDC04600000000C4050020C81B00107F
:1002D00010B501F0AFFA024801F0FEFA002010BD9F
:1002E000C81B001010B54024084A83009A181268F1
:1002F000C0005440C0222240054CA44663441A600A
:10030000044B9C466044416010BDC04604C001409F
:1003100004D00140004001400FB400B5084883B04C
:1003200001F0DAFA049B002B07D005A9180001910F
:1003300001F052F9034801F0CFFA012001F064F90D
:10034000D81B0010E81B001070B5EFF3108C72B6CC
:100350000D4D2B68002BFCD0BFF35F8F0724CB081B
:10036000C618C05C01230C40A3401C00044003429B
:1003700007D103433370BFF35F8F2C608CF3108879
:1003800070BD1000FFF7C8FF2C0100D0044A1078A0
:10039000431CDBB2172B00D9102313707047C046E3
:1003A000980100200021044B044ABFF35F8F02C371
:1003B0009342FAD17047C046000100D0800100D0BE
:1003C000054B064A1360064A136053609360D3607E
:1003D00013615361936170478080808000E400E086
:1003E00004E400E01F2318401E3B8340002905D091
:1003F000C021044A490053501360704780220149CC
:100400008B50FAE700E100E070B50D00EFF31086C5
:1004100072B60F4A1368002BFCD0BFF35F8F0D4BF1
:1004200010309B6884001B590B4A934203D09D42B5
:1004300001D000F009FF074B9B681D51BFF35F8F90
:10044000BFF35F8F0022024B1A6086F3108870BDE5
:10045000240100D000ED00E0CD010010F0B5DE4633
:1004600057464E464546E0B50C0083B0EFF3108981
:1004700072B65F4A1368002BFCD0BFF35F8F5D4BF1
:100480009A68030010339F00D5595B4A9046954205
:100490003DD0A5424ED0594EAA1B2F2A37D8584AD4
:1004A000934612689446012261469246824011406A
:1004B0001F221040524682409246019180225146AE
:1004C00058468150BFF35F8FEFF305829346002AB1
:1004D00032D101232A009A439068844208D17CE0FB
:1004E0004B005B189B00F318986884422ED01A00CA
:1004F000062151560029F3DA84424DD0019B002B8E
:100500001FD0C02251463E4B520099501960394BC2
:100510009B68DD51BFF35F8FBFF35F8F0022344BC9
:100520001A6089F3108803B0F0BCBB46B246A946F6
:10053000A046F0BD1500EAE79342CAD000F084FE61
:10054000C7E7802351462E4AD150E0E7062159568D
:10055000002922DB4A005018800034188046A06829
:100560009860E079D871062020569871002825DB24
:10057000A488F01A6405241544440019E0240005F9
:10058000400D24022043988052181E4B9200B6184A
:100590001A781970B271B1E71300594600290FD1CA
:1005A000FF3191711849918016490A789A71174A5A
:1005B0009B1B5B415A43120D0A709FE71448E2E708
:1005C000144A1549D21A083A5002400D0143998045
:1005D000124952080A43DA8090E706215156130067
:1005E0000029B7DA5A46002AEAD14546DCE7C04678
:1005F000240100D000ED00E0CD0100109C0100209E
:1006000000E100E03C06002001BDFFFFAAAA0000B7
:1006100001BD0000D601002000F0FFFF00F8FFFF41
:1006200070B501240443EFF30581EFF3108C72B62B
:10063000214A1368002BFCD0BFF35F8F1F4B0500CE
:100640001F4AED1A6D416A43120D1E4D8900AE68B6
:1006500052B27658A6421CD00621595691421CD05F
:1006600012215956914222D01E215956914220D032
:100670002A2159560324914210D0134B19781A702D
:100680008171BFF35F8F00220B4B1A608CF31088CF
:1006900070BDAB680D4C5C50EFE700246100091998
:1006A00089005B18FF21997109499980E5E70124C8
:1006B000F4E70224F2E7C046240100D09C010020A8
:1006C000AAAA000000ED00E03C060020CD010010C9
:1006D00001BDFFFF024B9C466144890001607047E9
:1006E00040000034F8B5134D134E2C00FF27B542DF
:1006F0001ED22368002B0FD0FFF748FE0100280010
:10070000FFF7E8FFA780BFF35F8F0834B4420FD232
:1007100023682500002BEFD1FFF738FE01002800E9
:10072000FFF7D8FF2771BFF35F8F0834B442EFD3D0
:10073000F8BDC04638020020400200200A4B19686C
:10074000EFF3108072B60A68002AFCD0BFF35F8F07
:100750001B68BFF35F8F00221A6080F3108840BFD0
:10076000002000217047C04630060020F0B5DE466C
:1007700057464E464546E0B585B0EFF30582032364
:1007800013409A0011000392B64A52589046012233
:100790009A409146B44B1A604B46B4484363434673
:1007A00008229B5E9A46002B3DDA43469B881BB28B
:1007B000002B00DBA1E043469B79002B00D0F3E047
:1007C000434608241C5F002C23DB42465269630029
:1007D00094461B19DB0063449C68DD68631C00D1F0
:1007E0000FE1A248039984466144826A0B69A61A04
:1007F0009B1A9E4215D34A46036A1A4211D09B485F
:1008000000F0C4FA241A8D41002D02DCC4D1002C62
:10081000C2D040BF05B0F0BCBB46B246A946A04618
:10082000F0BD0C61EBE7424652695B0093465344CE
:10083000DB009B445B469E68DF6800F0A7FA801BE4
:10084000B9410029B1DB002F00DAE5E05B46884AB8
:100850001B69934200D1D8E041465A460820085E01
:100860005288000410435A465169984704000D000D
:1008700023002B4300D1CFE0002D00DBE8E0361B46
:10088000AF4134003D005B469C60DD600021595E55
:10089000002900DA89E743465B6922009C462B0069
:1008A00048004018C00060448668C768921BBB417E
:1008B000002B00DA79E74346664602000094019572
:1008C00019810CE07B00DB19DB00F318009801991B
:1008D0009C68DD68001BA941002904DB1A00002385
:1008E000D75E002FEEDA5B461F80534613804346E7
:1008F0009B881BB2002B00DA5DE743461A69EFF3D1
:10090000108172B61368002BFCD0BFF35F8F434693
:100910009B8842461BB29A4601235B42938013692F
:10092000BFF35F8F00221A6081F310885346002BBB
:1009300000DA40E743465B699C46082343449B46F4
:1009400053465F0043465744FF0008229A5E6744BF
:100950005E46BC68FD68002A19DB3B0000940195E7
:1009600067469C4604E01E000023F25E002A0BDB73
:100970000098019953009B18DB00FB189C68DD6808
:10098000001BA9410029EEDA6346BC461F0053460E
:10099000338000217B5E3A809A46002BD0DA4346B2
:1009A0009B79002B00D10BE700234246937143460D
:1009B00046460821595E08364B1C00D129E74746B8
:1009C0008C46556902E006004B1C17D04B005B18A3
:1009D000DB00E8180A00E95E43881BB2002BF2DA5C
:1009E00001235B42DC178360C4606245ECD0318038
:1009F0003B89944603803A814B1CE7D1B846644654
:100A0000E1E66B1C00D0ECE6F9E65B465C69200091
:100A100023699847002821D15B4642461B881381F1
:100A20001269EFF3108372B611680029FCD0BFF38E
:100A30005F8F4246594652880A804246514651804D
:100A40001269BFF35F8F0021116083F31088ACE659
:100A5000064800F09BF924184D4114E765682468A6
:100A600006E7C0461C0600203C70054000400540DB
:100A70006D07001070B52E4C2569002D04D00A2199
:100A80002C48FFF727FE70BD2B4E0321300000F0ED
:100A900073F9E660FFF77AFC284B03229C46D023CB
:100AA00022701B061B6801216370254B6044A36004
:100AB0000F23800020610220638063694942A18086
:100AC00019800231198647311D83585218315A5204
:100AD00075325C399952183201319952183201310C
:100AE0009952183201319952083518329D5202310B
:100AF00018329952183201319952183201319952F3
:100B0000183201319952183201319952183201319B
:100B100099520C4B0C49DC6001303562FFF774FCD4
:100B200001210320FFF75EFC084B1D60A7E7C046CC
:100B3000E401002030060020004005404000003461
:100B4000FFFF10001C0600206D07001038600540F4
:100B500070B5C646010000B50469EFF3108C72B69B
:100B600020680028FCD0BFF35F8F02200D5E48692B
:100B70006C0080466419E4004444002D01DB2088A9
:100B800048800869BFF35F8F002606608CF31088E9
:100B9000002D30DBE36063880598013320615B043E
:100BA00006985B0CA26060611A1C002B21D090B2E9
:100BB0002B04628018430A69EFF3108672B613683B
:100BC000002BFCD0BFF35F8F8B8823808D800B6957
:100BD000BFF35F8F00221A6086F310880B78013212
:100BE0009A40CB6805498C4663441A6040BCB046C5
:100BF00070BD0122DBE701204042F7E73C20000006
:100C000010B543890A14934233DD53009B1842699F
:100C1000DB00944604696344EFF3108C72B62268DB
:100C2000002AFCD0BFF35F8F5A88090494B2090CE4
:100C30008A4208D00369BFF35F8F00221A608CF3E9
:100C40001088002010BD8022120214435C80012312
:100C500002698371BFF35F8F002111608CF31088EC
:100C6000054902788C469340C268012062441360B3
:100C7000E8E70020E6E7C0463C200000F0B5CE469D
:100C8000474680B504000D0083B0EFF30587002FC1
:100C90000DD0364A0020536A8B4203D3926A01304A
:100CA000A24250D303B0C0BCB946B046F0BD304BF1
:100CB0009846DB689946434648461E7800F066F839
:100CC0000B00494602000436B600715820008E1A07
:100CD0002900801A99418F4211DC0ED020BF234A8F
:100CE0000020536AAB42DDD3926A0130A242D9D2CE
:100CF000E81A421E9041C0B2D4E78642EED900F015
:100D00004DF822002B00121A8B41002B20DB002310
:100D10000193184B2200009340462B00FFF718FF69
:100D2000011E15DD114B2E005A6A95421CD89B6A94
:100D3000A34217D34046FFF763FF0C4A0020536AD3
:100D40009E42AFD8D0E7581A421E9041C0B2A9E7E0
:100D5000064A0020536AAB42A4D3926A0120A24201
:100D6000A0D2C5E79542E5D120BFE3E700400540AA
:100D7000E40100203D07001010B5024A0248FFF7C9
:100D8000E3FA10BDEC1B0010E40500200300416AEB
:100D90000A00986A596A8A42FAD17047034B596A25
:100DA0000A00986A596A9142FAD17047004005409A
:100DB00070B504000D00124A536A1900966A536A0E
:100DC0008B42FAD13000190024184D41AB4211D8A2
:100DD0000ED02B000A494A6A9A42FCD307D1084A2E
:100DE00002E0516A994202D1916AA142F9D370BDE1
:100DF000A642EED9012301246442E5175B42E9E7EC
:100E000000400540F8B5040006200D0000F076F91A
:100E1000002842D0364B3749E21853425A418023CA
:100E2000DB039C469205344B62441A60334B1A60D4
:100E300010000B689843FBD12D4B8021E3185A42D8
:100E400053412F4A5B0049009952062000F056F9A1
:100E50002900C00000F0D6FA0130C3091ED1402796
:100E600001226262A362266BF30722D4E36A254B58
:100E70000620E51800232B60266300F03FF93900B7
:100E8000800000F0BFFA7022E36A5A407E231340CC
:100E90002B601D4B23630323A364F8BD1B4A9342BD
:100EA0001ED900231A4A1B4F6262A362266BF30706
:100EB000DCD5194B144AE3181A60656AA26A062049
:100EC000AD01AD1800F01AF9144900F09BFAAD021B
:100ED0000100280000F096FA0021FFF769FFC5E73E
:100EE0004006800E9F011A003F180300B9E7C04674
:100EF0000080FCBF08C0004000E0004000F000405F
:100F0000340600202C10000001030000FEFF00004A
:100F1000FFFF0000C0FF3F00303000004E0E000019
:100F2000F8B5DE464E4657464546E0B58B460500C9
:100F30000A991800160000F065FA0A9B6C001F025F
:100F4000324B64199C46A4006444636881469F4206
:100F500000D967602B1FDBB29846012B30D9C02324
:100F600080229B01E31812011A60294BAD005959E8
:100F70009A4600291BD1226876017240E026802320
:100F8000164042465B01E3181E60012A30D98023D7
:100F900080229B01E31812011A6053464A4667609B
:100FA0005A51F0BCBB46B246A946A046F8BD5869A6
:100FB00000F028FA431C5800C0180338FDD2DAE7C5
:100FC0005B46012BCBD1C02303229B01E3181A609F
:100FD000023AA3681A42FCD0E02322687601564008
:100FE0001E4080230A4A5B019246E3181E60AD0052
:100FF0005A462168514003220A401A6001225B468A
:101000009A40A3681A42FCD0C1E7C0460080004065
:10101000E8050020F0B546464F46D646C0B51F004D
:10102000344B44009C462418A400644463688846FA
:101030001600FF2B02D880235B006360031FDBB226
:101040009A46012B30D9C02380229B01E31812015C
:101050001A60294B85005959994600291BD12268ED
:1010600076017240E0268023164052465B01E31869
:101070001E60012A30D9802380229B01E3181201CF
:101080001A6080235B0063604B465F51E0BCBA4648
:10109000B146A846F0BD586900F0B4F9431C5800A9
:1010A000C0180338FDD2DAE74346012BCBD1C02369
:1010B00003229B01E3181A60023AA3681A42FCD08B
:1010C000E0232268760156401E4080230A4A5B01D5
:1010D0009146E3181E608500424621685140032274
:1010E0000A401A60012342469340A2681342FCD092
:1010F000C1E7C04600800040E8050020014B8000A9
:10110000C0587047E8050020F8B5040020481D00CD
:1011100017000E0000F076F90100380000F072F9B7
:10112000069B29041B0319432368002B1EDB194B64
:10113000194DE21853425A4180235B019C46120329
:10114000164B62441A60164B1A6017002B689F43B7
:10115000FBD1144B2660E2182123A06013602368A2
:10116000002BFCDA0823E1601360F8BD3F232268FE
:101170001340B342DBD1A3681B051B0D8342D6D1BC
:10118000EE22E368D20213408B42D0D1EDE7C04695
:10119000001BB7000040FDBF08C0004000E0004059
:1011A00000F00040043000008023024A9B000B4303
:1011B000D362704700800540142310B501001888E1
:1011C00004331B88984710BD162310B501001888FA
:1011D00002331B88984710BDF8B54746CE4680B508
:1011E0000F1E19D01423994604330400002501264C
:1011F00098464B461888434621681B88984701C487
:10120000431E9841013540420640AF42F1D13000C3
:10121000C0BCB946B046F8BD0126F8E7AA23064A85
:101220001B0113608D235B00D3600449044B1960DC
:101230005368002BFCDA70470040024000B0FA000F
:10124000006002407047C04610B50148FFF764F8DF
:10125000101C001070B5074D074EB54209D200248E
:10126000013E761BB60808CD984723000134B342EF
:10127000F9D170BD881B0010C41B0010054B064A35
:1012800006491A60064A074B1A6010000B6898431B
:10129000FBD1704700E00040BFCDFBFE08C000401E
:1012A000FE7F3C0000F00040044BDB6C002B03D1C0
:1012B0008022034BD2021A607047C04600001150D2
:1012C0004C201150044A054B1A60054A1368DB0193
:1012D0008033FBD17047C046FFFFFF0100F00040A4
:1012E00008C000404022034B9A675A671A67DA66C3
:1012F0007047C04600F0014010B5FFF753F810BD2D
:1013000070B5044D044C2800C022A16800F056F9C5
:10131000A56070BD0000002000ED00E0002310B5C6
:10132000294C82B0A367FFF779FF0122274B1A608F
:10133000636C012BFCD10322254B1A60224A936B6C
:10134000012BFCD1013300930121224A22480433AE
:10135000FFF7DAFE052301210093204A2048FFF71A
:10136000D3FE0022022104201E4BFFF753FE002271
:10137000012105201C4BFFF74DFE00220021072014
:101380001A4BFFF747FE002200210820174BFFF7FA
:1013900041FE8023DB000093002200210920134B33
:1013A000FFF7BEFD0022104B00210620FFF732FEA2
:1013B0000420FFF7A3FE0E4900F024F801000020EE
:1013C000FFF7F2FE02B010BD008000403CB00040CC
:1013D00030B00040002F685900800240008C8647E2
:1013E00000C00240001BB70040597307006CDC02CC
:1013F00040420F0001480421014B18470002002021
:10140000D9110010114A936F9B0813D210665166D0
:10141000002905D0FFE7FFE7FFE7516F106F704726
:1014200004B5002801D00020C04300F09DFB00213E
:1014300004BDC046F0B5146E556E576F166FFFF7BA
:10144000E5FF1466556657671667F0BD000000D0CB
:10145000132370B51D78012D19D014DD1E48FFF738
:10146000B3FE06001D48FFF7AFFE1D4C8022310081
:10147000200000F0A3F8022D06D01A48FFF79CFECA
:10148000194B186070BD164C184BA364F5E7174B49
:10149000134C23606360A360E36023616361A36115
:1014A000E36123626362A362E36223636363A36312
:1014B000E36323646364A364E36423656365A365F2
:1014C000E36523666366A366E36623676367A367D2
:1014D000E367A364D1E7C0465344000053460000CD
:1014E000C00300204C3300002C060020F114001033
:1014F00007B5604601880A0A0230DF2AFAD1C9B26C
:10150000820804D3028840880004104300E0006889
:10151000014A5050039007BDC0030020132310B5AB
:1015200012481C78FFF750FE0100012C0AD003DDA1
:1015300080220F4800F042F80E48FFF73DFE0E4BA8
:10154000186010BD0A4C5422200000F037F80B4BF5
:101550006365A365E36523666366A366E366236745
:101560006367A367E3672362E361E5E7534600002F
:10157000C00400204C3300002C0600208115001010
:1015800007B5604601880A0A0230DF2AFAD1C9B2DB
:10159000820804D3028840880004104300E00068F9
:1015A000014A5050039007BDC004002001480421A7
:1015B000014B184710020020D9110010014B5B6845
:1015C000184700001002002010B5002800D110BDFF
:1015D00000F036F9FBE7C04610B5094A030014686D
:1015E00084B0002C08D0012200910648524203A981
:1015F000A047012004B010BD00F06EF90020F9E70B
:1016000018060020C915001000BEFDE710B5FFF751
:10161000FBFFC04670B5FFF71DFE074D074EB542F4
:1016200009D20024013E761BB60808CD9847230056
:101630000134B342F9D170BDC41B0010C81B0010A7
:10164000030010B5080011001B68984710BDC04684
:10165000F0B546464F46D646C0B5437D80460E009F
:101660001700002B46D0002A3FDD4B1E9946244B25
:101670000125002400209A460DE04B461B5D0D3BE2
:101680005A425341325DDBB20A2A0BD02B0001349F
:1016900001359F421ADD002CEFD14346325D1B7DA0
:1016A0000A2AF3D1002BF1D1A04204DA4346211AD1
:1016B0001B6830189847434650461B6802219847DC
:1016C000013428002B0001359F42E4DC874204DD11
:1016D0004346391A1B6830189847F619013E33788B
:1016E0000D3B5A42534142461375E0BCBA46B146DF
:1016F000A846F0BD0368110030009847F5E7C046E2
:10170000B01C0010F0B5DE4657464E464546E0B5E3
:1017100085B017001C0006000D00FFF73FFB0023FB
:10172000314A12184B41002B59DB304908008A46D8
:1017300000F022FA01906B1C03D1300000F0DCF9BC
:101740000500002C26D12A4B98462A4B1C68002CF9
:1017500015D0002F21D1284F02E02469002C0ED093
:101760002368002BF9D03B68002B01D0A342F4D1B1
:1017700020002A003100C0472469002CF0D1019BD1
:10178000002B28D1280005B0F0BCBB46B246A946C4
:10179000A046F0BD194B9846D7E7174B994602ABC8
:1017A000DF1D0A239B4602E02469002CE7D0236852
:1017B000002BF9D04B461B68002B01D0A342F3D17C
:1017C0002A0031002000C0475B460122390020007A
:1017D0003B70C047E8E7504600F0BEF9D2E701226F
:1017E000074B5242A1E7C04640420F00380200209A
:1017F000411600101006002014060020511600109B
:10180000FFFFFF7F0A4A1368002B05D10CE01A0086
:101810001B691032002B07D09842F8D1002902D161
:1018200003691360016170470029FCD01060FAE77A
:101830001006002010B500F037F9012010BDC04699
:10184000F0B5CE46474680B583B06B460600DD1D39
:101850002870FFF7A3FA00231A4A12184B41002BF5
:101860002BDB19490800884600F086F9174B8146A2
:101870001C68002C14D0164F02E02469002C0FD0F5
:101880002368002BF9D03B68002B01D0A342F4D190
:10189000200001222900FFF7DBFE2469002CEFD194
:1018A0004B46002B05D1300003B0C0BCB946B04652
:1018B000F0BD404600F050F9F5E70122054B5242D9
:1018C000CFE7C04640420F0038020020100600203B
:1018D00014060020FFFFFF7F70B5040000F00CF934
:1018E00001230100050001222000FFF70BFF084B38
:1018F0001C68002C06D06368002B05D0984724692B
:10190000002CF8D1280070BD2469002CF3D1F9E730
:1019100010060020F0B50D1E15DD0E4B0D271A68C0
:101920000D4B4519D31859424B410C495B005E5E83
:1019300020210478A64207D093691942FCD10130D6
:101940001460A842F5D1F0BD93691942FCD117602B
:10195000F2E7C046380600200080FCBF34060020B5
:1019600030B504000D1E24DD002010211A4B013C6F
:101970001A689369194217D1013093691942FCD151
:10198000136823548542F4D1144B1B68002B0AD0F2
:1019900050239363516B183B0B4011498C466244B2
:1019A0001360002814D030BD0C4B1B68002BEFD106
:1019B000F7E70A4B1B68002B0AD05022064B1B6826
:1019C0009A63596B183A0A4005498C4663441A6079
:1019D00003204042E7E7C04638060020DC0500202F
:1019E00034100000064B10B51B68002B06D00021F8
:1019F000044A12689163044A1068984710BDC046B3
:101A0000DC05002038060020E00500200822034BFA
:101A100019688B691A42FCD17047C046380600200D
:101A200070B51B4E1B4B32680500D318584243411A
:101A300014331C00002D04D0174B1A68002A11D053
:101A400070BD154E3368002BFAD00021200095633D
:101A5000FEF7C8FC20001149FEF700FD104B356071
:101A60001D60EDE71D600E4B200019600B49FEF76D
:101A7000CBFC01212000FEF7B5FC502233689A63AD
:101A8000596B183A0A4007498C4663441A60D7E7F5
:101A9000380600200080FCBFDC050020E51900109E
:101AA000E0050020341000000D4B10B51B780D4BE5
:101AB0000D4C1B780D4B02211B780D4B0020236031
:101AC000FEF710FC02210120FEF70CFCE12120684A
:101AD0004902FFF797F901210648FFF793FE10BD71
:101AE000181D00101C1D001038060020201D0010BD
:101AF000004003402002002010B583070AD00300F5
:101B0000032102E001330B4205D01A78002AF9D1F3
:101B1000181A10BD030019680C4A0D4C8A188A4324
:101B200022420FD15968094A04338A188A43224253
:101B300008D15968054A04338A188A432242F1D0F1
:101B400000E001331A78002AFBD1E1E7FFFEFEFE38
:101B500080808080F8B5C04601B40248844601BC4C
:101B6000604700BF5D01002001B40248844601BC0B
:101B7000604700BF8501002001B40248844601BCD3
:101B8000604700BFC10000207D120010A9120010A4
:101B9000F5130010AD150010511400101D150010A4
:101BA0001D130010C5120010E5120010F9120010EC
:101BB000E506001001130010750A00104512001010
:081BC000C1030010B102001086
:101BC80048656C6C6F2C20776F726C642100000084
:101BD8000A2A2A2A2050414E4943202A2A2A0A0042
:101BE8000A000000486172647761726520616C6167
:101BF800726D20256420616C726561647920636C64
:101C080061696D65640000004861726420617373E6
:101C18006572740052656C6561736500626F6F74FC
:101C2800325F77323571303830000000322E312E75
:101C3800310000007069636F0000000068656C6C1B
:101C48006F5F776F726C64004A756E203131203295
:101C58003032350005005250DE65F468A41E0010CD
:101C6800060052505422A29D501C001006005250EB
:101C7800861C0302441C001006005250BBFF3CB6F1
:101C88003C1C001006005250ABB36053341C0010CB
:101C980006005250E182887F241C00100600525032
:101CA800D3F075421C1C00100D0A00005541525417
:101CB80020737464696E0000554152542073746433
:101CC8006F7574005541525420737464696E202FE7
:101CD800207374646F7574000600525053B4F4A1F5
:101CE800CC1C00100800525012000000080052508E
:041CF8009210000046
:101CFC005C1C0010681C0010741C0010801C001070
:101D0C008C1C0010981C0010A41C0010E01C00106F
:081D1C00EC1C0010F41C001087
:101D2400F0B5C646150000B504001E000268EFF3C6
:101D3400108172B61368002BFCD0BFF35F8F0423AD
:101D4400E356002B2DDB2268BFF35F8F0020106069
:101D540081F31088D0221206127852B290469A4229
:101D640003D1002080BCB846F0BD00270BE02368F7
:101D7400BFF35F8F1F6081F310882800310000F0EB
:101D840033F80028EDD12268EFF3108172B613689E
:101D9400002BFCD0BFF35F8F23797F2BE7D9434619
:101DA40002E0D0231B061B6823712368BFF35F8FF7
:101DB40000221A6081F310880120D3E70268EFF350
:101DC400108172B61368002BFCD0BFF35F8FFF2322
:101DD40003710368BFF35F8F00221A6081F31088D8
:101DE40040BF70477047C04601B40248844601BCF6
:101DF400604700BF7D0C00101000000000000000D0
:101E040000000100000000000000000000000200CB
:101E140000000000000000000000030000000000BB
:101E2400000000000000FF000000000001B5486849
:101E340001318E460047704609380149884701BD83
:101E44002106001000000000000000000000000057
:101E5400000000000000000040020020000000001C
:101E6400503300004C330000543300005233000060
:101E74004D5300004D430000533400004334000030
:101E8400151900100D1A001061190010211A001004
:101E9400000000000001000000000000000000003D
:04000005100001E9FD
:00000001FF
