:020000041000EA
:1000000000B5324B212058609868022188439860DF
:10001000D860186158612E4B002199600221596106
:100020000121F02299502B49196001219960352056
:1000300000F044F80222904214D00621196600F024
:1000400034F8196E01211966002018661A6600F04E
:100050002CF8196E196E196E052000F02FF8012189
:100060000842F9D1002199601B49196000215960AB
:100070001A491B48016001219960EB211966A021F2
:10008000196600F012F800219960164914480160C1
:100090000121996001BC002800D000471248134993
:1000A000086003C880F30888084703B5996A0420EC
:1000B0000142FBD001200142F8D103BD02B5186610
:1000C0001866FFF7F2FF186E186E02BD00000240BE
:1000D000000000180000070000035F00212200005C
:1000E000F4000018222000A00001001008ED00E03C
:1000F00000000000000000000000000074B24E7A12
:1001000000200420F7010010CB010010CD010010E9
:10011000C9010010C9010010C9010010C901001077
:10012000C9010010C9010010C9010010CF01001061
:10013000C9010010C9010010D1010010D301001045
:10014000C1010010C1010010C1010010C101001067
:10015000C1010010C1010010C1010010C101001057
:10016000C1010010C1010010C1010010C101001047
:10017000C1010010C1010010C1010010C101001037
:10018000C1010010C1010010C1010010C101001027
:10019000C1010010C1010010C1010010C101001017
:1001A000C1010010C1010010C1010010C101001007
:1001B000C1010010C1010010C1010010C1010010F7
:1001C000EFF30580103800BE00BE00BE00BE00BECA
:1001D00000BE00BEF2EB88719C2B0010C42B0010F7
:1001E0003802001090A31AE71E481F49086006C88D
:1001F00081F3088810471D480068002801D019487D
:10020000F3E70DA40ECC002902D000F012F8F9E7B4
:100210001749184A002000E001C19142FCD116495B
:100220008847164988471649884700BEFDE701C937
:1002300001C29A42FBD37047C42B0010C0000020BB
:1002400044020020482D001000000420000004207B
:10025000482D0010001004200010042000000000B1
:10026000704700000000000008ED00E0000000D032
:1002700044020020DC07002021220010ED030010C2
:1002800019220010F8B5C046044B10B5002B03D05E
:100290000349044800E000BF10BDC0460000000054
:1002A000A00700200429001070B50478002C17D096
:1002B000002120220D26114B00255D5F104B0029E7
:1002C0000FD1A54214D099690A42FCD11C60017873
:1002D00001300D394C4261410478C9B2002CEED195
:1002E00070BD99690A42F1D099690A42F9D1EDE7E6
:1002F00099690A42FCD11E60E5E7C046D00700209C
:1003000000400340F0B5C646060000B512021B04CB
:1003100011431943134B68461B68D0257360079B34
:100320003400B360331D98460127007E2D06000679
:1003300001433160207800F015FB3A0023789620C5
:100340009A4040006A626A6101F050F83A002378EE
:1003500001349A40AA614445ECD1300080BCB846D3
:10036000F0BDC046202A001070B50221012000F027
:10037000CBFA0221002000F0C7FA96211848890123
:1003800001F098F90A24002120220D26154B164869
:1003900000255D5F124B002915D1A5421AD099693D
:1003A0000A42FCD11C60017801300D394C42614198
:1003B0000478C9B2002CEED100230122082108489C
:1003C00001F008FA70BD99690A42EBD099690A42B6
:1003D000F9D1E7E799690A42FCD11E60DFE7C04620
:1003E00000400340D007002004290010F0B5DE468D
:1003F0004E4645465746E0B5C1B002F01DF880258F
:1004000001211C2000F09AFA05232D0111AC0322D2
:100410000221200001950093013BFFF773FF0923A0
:10042000072206210195009314A8013BFFF76AFFFC
:100430000D2317AE0B220A21300001950093013BDA
:10044000FFF760FF1AAB984611230F220E2101958A
:1004500000934046013BFFF755FF15231DAF1322C4
:10046000122138000195009320AD013BFFF74AFFB0
:100470002B0007CC07C3994607CE07C321000C22E7
:1004800018001E0001F0A0FE414629AB9C4615C98C
:1004900015C3190015CF15C18B4685CD85C14846BA
:1004A000A4C8A4C1624631CE31C131CA31C10A00EB
:1004B00013CB13C2D64B642259463E934023CA54F1
:1004C000D0218022090652054B681342FCD0FFF769
:1004D0004BFFD048FFF7E8FECF4B02931B78002B71
:1004E0005BD1CE4BCE4F0D93BB69DB064ED41022B1
:1004F0001400BB691C401A42FAD13B680C94DDB26F
:10050000782D02D1012202990A70FF261E40300088
:1005100002F0FEF88246002803D0300002F004F911
:10052000C5B23C235A46D35CAB424DD03D23D35C8D
:10053000AB4200D1D1E13E23D35CAB4200D1D0E14C
:100540003F23D35CAB4200D1CFE14023D35CAB422D
:1005500000D1CEE10D9B00220020185E0A25202349
:100560000D24B049002A23D1A84228D0BA691342E9
:10057000FCD13D600A7801310D3A55426A410D784F
:10058000D2B2002DEED1642000F030FF322000F016
:100590002DFF029B1B78002BA6D0A348FFF784FEFB
:1005A000002041B0F0BCBB46B246A946A046F0BD13
:1005B000BA691342DDD0BA691342F9D1D9E7BA69F1
:1005C0001342FCD13C60D1E700231A000E939446FD
:1005D00053000F9363449B001D005D44A86804937F
:1005E00001F016FD9149061C01F00BFD01F038FDEC
:1005F000039004008120311CC00501F0EEFC8C4901
:1006000001F0FFFC01F032FD05900691002C69D04D
:100610005246531E9A410121D2B250425041032604
:100620000C0043421E40B4400A940C000130844048
:100630000800013290400222934303339940002383
:10064000D0269946013398466B1C0B930C9B09945A
:1006500008904C4607919946360629E0B26141461A
:100660000B9A0998127891400A00E9180979084212
:1006700000D0E1E0B2614146AA78089891400A00B2
:10068000E9180979084200D0BFE0B2614146EA7832
:10069000EB1891401B790A000799194217D1059868
:1006A0000699B26100F02CFE039B0134A34217D0DF
:1006B0005A4604990323525C4146914023400A0064
:1006C000E91809790A980842C8D07261C7E7059805
:1006D0000699726100F014FE039B0134A342E7D136
:1006E0004B460C930E9A0F9B944663449A005B46CC
:1006F00001219B5CD02689469940049236065A44D3
:10070000B161531C0593150053784A469A40B26173
:100710004A46AB7814209A40B2614A46EB789A4038
:10072000B26100F063FEA86801F072FC41498046A6
:1007300001F067FC01F094FC039004008120414625
:10074000C00501F04AFC3A4901F05BFC01F08EFC67
:1007500006900791002C7AD053465A425341DBB29F
:100760005942594103204C464A4210408440484671
:100770000131884049460133994002239A434B4650
:1007800003329340994603239A46023B08949846C5
:100790000C9C09900A9129E0B2614146059A09989A
:1007A000127891400A00E9180979084200D08DE0DA
:1007B000B2614146AA780A9891400A00E91809797D
:1007C000084200D080E0B2614146EA78EB189140DF
:1007D0000A0049461B79194230D106980799B2613F
:1007E00000F08EFD039B0134A34230D05A46049999
:1007F0005346525C4146914023400A00E91809796A
:1008000008980842C8D07261C7E772613EE7C046E7
:10081000726C666224290010D8070020D0070020DF
:10082000004003406429001038290010295C8F3EE5
:10083000002474490AD7A33C72611CE70698079903
:10084000726100F05DFD039B0134A342CED10E9A8C
:100850000F9B94465A4663449B00D15C01221000D2
:100860008840D0211400090688615B4458780A2624
:1008700084408C61140098780D2584408C61DB786D
:100880001E489A408A6100211D4B202200241C5FD3
:100890001C4B002911D1B4421AD099690A42FCD1EB
:1008A0001E60017801300D394E4271410678C9B29F
:1008B000002E00D167E60029EDD099690A42EFD0F9
:1008C00099690A42F9D1EBE772617DE7726170E7DD
:1008D00099690A42FCD11D60DFE701231A000E93DB
:1008E00075E602231A000E9371E603231A000E9395
:1008F0006DE604231A000E9369E6C04654290010E1
:10090000D007002000400340094A83009A1810B520
:1009100014684022544080322240064CC000A44655
:1009200063441A60044B9C466044416010BDC0465D
:1009300004C0014004D00140004001408000002973
:1009400005D0064B9C464023604403607047044B2F
:100950009C46402360440360F8E7C04604E0014041
:1009600004F001400123D022834012069362936178
:10097000094A83009A1811684022514080320A4087
:100980000649C0008C4663441A60054B9C4605230B
:10099000604443607047C04604C0014004D0014039
:1009A000004001400FB400B5084883B001F094FD49
:1009B000049B002B07D005A91800019101F012FC3F
:1009C000034801F089FD012001F024FC7429001086
:1009D0008429001070B5EFF3108C72B60D4D2B68A2
:1009E000002BFCD0BFF35F8F0724CB08C618C05C78
:1009F00001230C40A3401C000440034207D11843CC
:100A00003070BFF35F8F2C608CF3108870BD1000C6
:100A1000FFF7C8FF2C0100D0044A1078431CDBB25A
:100A2000172B00D9102313707047C046980100207F
:100A30000021044B044ABFF35F8F02C39342FAD1F3
:100A40007047C046000100D0800100D0054B064A27
:100A50001360064A136053609360D360136153615F
:100A6000936170478080808000E400E004E400E04F
:100A70001F2318401E3B8340002905D0C021044A93
:100A80004900535013607047802201498B50FAE7A8
:100A900000E100E070B50D00EFF3108672B60F4A6A
:100AA0001368002BFCD0BFF35F8F0D4B10309B6899
:100AB00084001B590B4A934203D09D4201D001F0A0
:100AC0005BF8074B9B681D51BFF35F8FBFF35F8FD0
:100AD0000022024B1A6086F3108870BD240100D0FA
:100AE00000ED00E0C1010010F0B5DE4657464E466D
:100AF0004546E0B50C0083B0EFF3108872B6634A48
:100B00001368002BFCD0BFF35F8F614B61499A687B
:100B1000030010339F00D55901938D4243D0A54265
:100B200054D05D4EAA1B2F2A3DD85C4B9B461B68B8
:100B3000994601231A009C4682404B4613401F22CF
:100B400099466346024093409A4680225B4650464F
:100B50009850BFF35F8FEFF305839B46002B37D090
:100B6000019B5B4501D001F007F801232A009A435D
:100B70009068844208D176E04B005B189B00F31824
:100B80009868844236D01A00062151560029F3DABB
:100B9000844254D04B46002B27D0C02251463F4BB5
:100BA0005200995019603A4B9B68DD51BFF35F8F3B
:100BB000BFF35F8F0022354B1A6088F3108803B0B3
:100BC000F0BCBB46B246A946A046F0BD0D00EAE720
:100BD0002A0063469A4390688442D5D10620105675
:100BE000130000280ADA0D0031E0802351462B4A19
:100BF000D150D8E706201856002821DB42001118F2
:100C0000890074188B46A1689960E179D971062131
:100C100061569971002924DBA488F11A6405241512
:100C20005C44091909051E4C490D2143998013188C
:100C30001C4A9B001178F31899711070AAE71300F1
:100C40005946002914D1FF319171174991801549F6
:100C50000A789A71154A9B1B5B415A43120D0A7020
:100C600098E71149E2E70620105613000028C5DA7C
:100C70000F4A1049D21A083A5002400D0143998098
:100C80000D4952080A43DA8084E7C046240100D0A7
:100C900000ED00E0C10100109C01002000E100E037
:100CA00000E0FFFFD907002001BDFFFFAAAA000056
:100CB000D601002000F0FFFF00F8FFFF70B501240F
:100CC0000443EFF30581EFF3108C72B6214A1368E9
:100CD000002BFCD0BFF35F8F1F4B05001F4AED1A9E
:100CE0006D416A43120D1E4D8900AE6852B27658AE
:100CF000A6421CD00621595691421CD012215956A9
:100D0000914222D01E215956914220D02A21595673
:100D10000324914210D0134B19781A708171BFF3DC
:100D20005F8F00220B4B1A608CF3108870BDAB688C
:100D30000D4C5C50EFE700246100091989005B1835
:100D4000FF21997109499980E5E70124F4E702241C
:100D5000F2E7C046240100D09C010020AAAA0000AE
:100D600000ED00E0D9070020C101001001BDFFFF28
:100D7000024B9C466144890001607047400000348A
:100D800070B5114C114DAC420FD2FF262368002BD9
:100D90000CD0FFF741FE01002000FFF7E9FFA6801D
:100DA000BFF35F8F0834AC42F0D370BDFFF734FE61
:100DB00001002000FFF7DCFF2671BFF35F8F0834CE
:100DC000AC42E3D3F1E7C0463C02002044020020DD
:100DD0000A4B1968EFF3108072B60A68002AFCD03B
:100DE000BFF35F8F1B68BFF35F8F00221A6080F331
:100DF000108840BF002000217047C046CC0700206B
:100E0000F0B5DE4657464E464546E0B587B0EFF3AF
:100E10000583032201251A40954091008846A94682
:100E2000B34B03925C58B34B1D60B34B04934B46DA
:100E3000B24843630823E55E002D37DAA3881BB26E
:100E4000002B00DBADE0A379002B00D0EEE00823FF
:100E5000E05E002820DB430062691B18DB00D3182A
:100E60009E68DD68731C00D111E1A4480100414473
:100E7000826A0B69B71A9B1A9F4215D30123026A33
:100E8000039883401A420FD09C4800F0BDFB8D426E
:100E900002DCCCD18642CAD940BF07B0F0BCBB4609
:100EA000B246A946A046F0BD0E61EDE762696B004F
:100EB00092465B19DB009A4453469E68DF6800F057
:100EC000A3FB8F42BADC00D103E1002F00DAE8E097
:100ED0005246534652691B699346049A934200D185
:100EE000D9E052460821605E5288000459461043FA
:100EF0009847009001910099019A0B00100013434C
:100F000000D1CEE013000A00B61A9F41002806DB8C
:100F10007A4800F079FB009E019F36184F415346F6
:100F20009E60DF6000229A5E002A00DA86E75300A6
:100F300099186069C900411802938B68C9689B467B
:100F4000B94200DD7AE702D1B34200D976E708233F
:100F50009C46A444059565462281A446029B2C002C
:100F600006E053009918C90041188D68C968AB465E
:100F70009B18DB00C318B94206DC00D1B3E01C00AB
:100F80000023E25E002AECDA230064469C465346C6
:100F90001A806346059D1D80A3881BB2002B00DAD2
:100FA00051E72269EFF3108172B61368002BFCD071
:100FB000BFF35F8F0123A7885B42A3803FB2236901
:100FC000BFF35F8F00221A6081F31088002F00DAD0
:100FD00039E72300083322009A4666697B00DB1953
:100FE000DB00F318996850468C460824115FDD68D1
:100FF000002910DB029306E0AB4244D00023E15EFF
:101000002000002906DB4C006418E4003419E36872
:10101000AB42F1DD029B078000201F5E1980002F8C
:10102000DCDA1400A379002B00D110E70023A371B0
:1010300026000823E15E08364B1C00D12CE708008F
:10104000A246656902E03E004B1C1AD04B005B18BB
:10105000DB00EF180A008C46E95E7B881BB2002B90
:10106000F1DA01235B42DC17BB60FC60824205D0F1
:10107000534631801B893B8053461A8160464B1C86
:10108000E4D15446E5E6A3686345B7D9C2E76B1CD3
:1010900000D0EAE6F8E65B4658461B699847002808
:1010A0001BD153461B8822692381EFF3108372B64C
:1010B00011680029FCD0BFF35F8F514662880A8017
:1010C00022696580BFF35F8F0021116083F3108870
:1010D000B4E6864200D8F8E6B0E65B461A685B687C
:1010E0000092019307E7B34500D848E74CE7C046B4
:1010F000B80700203C700540010E0010004005407C
:1011000070B52E4C2569002D04D00A212C48FFF71C
:101110002FFE70BD2B4E0321300000F06BFAE6600D
:10112000FFF77AFC284B03229C46D02322701B0633
:101130001B6801216370254B6044A3600F2380006E
:1011400020610220638063694942A18019800231D5
:10115000198647311D83585218315A5275325C39FD
:10116000995218320131995218320131995218327C
:1011700001319952083518329D5202311832995274
:101180001832013199521832013199521832013115
:1011900099521832013199521832013199520C4B3F
:1011A0000C49DC6001303562FFF774FC012103203B
:1011B000FFF75EFC084B1D60A7E7C046E401002076
:1011C000CC0700200040054040000034FFFF100025
:1011D000B8070020010E00103860054070B501000E
:1011E0000469EFF3108C72B620680028FCD0BFF3BE
:1011F0005F8F02200D5E4C6968004019C000241802
:101200000869002D36DB26884E80BFF35F8F0026ED
:1012100006608CF31088E3606388049801332061D2
:101220005B0405985B0CA26060611A1C002B1FD048
:1012300093B22804628018430A69EFF3108C72B6E7
:101240001368002BFCD0BFF35F8F8B8823808D80C9
:101250000B69BFF35F8F00221A608CF310880B7844
:1012600001329A40CB6808498C4663441A6070BDCD
:101270000122DDE7BFF35F8F002303608CF310884A
:1012800001204042F3E7C0463C20000010B54389EE
:101290000A1493421ADD53009B184269DB00D318ED
:1012A0000469EFF3108C72B62268002AFCD0BFF3F9
:1012B0005F8F5A88090494B2090C8A4208D00369E6
:1012C000BFF35F8F00221A608CF31088002010BDDE
:1012D0008022120214435C80012302698371BFF3F0
:1012E0005F8F002111608CF31088044902788C46CE
:1012F0009340C268012062441360E8E73C2000008C
:10130000F0B5C64600B582B004000D0000F084F9C7
:1013100024184D41002D02DA01242F4D6442062687
:101320007642F71736196F41AF4214D811D000F04A
:1013300073F932003B00121A8B41002B15DC002B95
:1013400046D02000290000F0A5F902B080BCB846C4
:10135000F0BDA642EBD90026002700F05DF932006F
:101360003B00121A8B41002BE9DD00F055F93200E9
:101370003B00121A8B41002B0ADB00230193174B11
:101380003200009316483B00FFF728FF0130D8D009
:1013900000233900B0469C46124A1348536A9942CA
:1013A00004D8966AB045CCD99942CAD10668EFF301
:1013B000108772B63368002BFCD0BFF35F8F0368D1
:1013C000BFF35F8F66461E6087F3108820BFE5E796
:1013D000002AB6D0C9E7C046FFFFFF7FD10D00103D
:1013E000E401002000400540CC070020F0B5C646CF
:1013F00000B582B0040000F00FF9FA2206000F00D9
:10140000200000230021920000F0C4FD80197941E2
:1014100004000D1E02DA01242E4D64420626764297
:10142000F71736196F41AF4214D811D000F0F4F815
:1014300032003B00121A8B41002B15DC002B46D0EA
:101440002000290000F026F902B080BCB846F0BDAB
:10145000A642EBD90026002700F0DEF832003B0060
:10146000121A8B41002BE9DD00F0D6F832003B0068
:10147000121A8B41002B0ADB00230193164B32001A
:10148000009316483B00FFF7A9FE0130D8D0002397
:101490003900B0469C46124A1248536A994204D811
:1014A000966AB045CCD99942CAD10668EFF3108745
:1014B00072B63368002BFCD0BFF35F8F0368BFF3B5
:1014C0005F8F66461E6087F3108820BFE5E7002A1D
:1014D000B6D0C9E7FFFFFF7FD10D0010E401002067
:1014E00000400540CC070020F0B557464E46DE468A
:1014F0004546E0B506000F0085B0EFF30583994639
:101500008B46002B12D0384900204B6ABB4206D3D1
:101510008A6ADB1B591E8B41B2424041184305B019
:10152000F0BCBB46B246A946A046F0BD2F4B9A463A
:10153000DB68984653461B784046039300F064F8F6
:101540004246039B040004339B009B580D001B1A6A
:1015500039003000001BA941894510DC0DD020BFA7
:10156000214A0020536A5B45D9D3926ADB1B591E7E
:101570008B41B24240411843D1E78342EFD900F09A
:101580004BF832003B00121A8B41002B1ADB002370
:101590000193174B3200009350463B00FFF71EFEAD
:1015A000011E0FDD104B5A6A5A451BD39B6AB3428A
:1015B00016D35046FFF76AFE0B4A0020536A5B457C
:1015C000ADD3D2E7084A0020536A5B45A7D3002079
:1015D000926ADB1BB24240415A1E934118439EE778
:1015E0005A45E6D120BFE4E700400540E401002071
:1015F000D10D001010B5024A0248FFF7EBF910BDFB
:1016000088290010680700200300416A0A00986AD0
:10161000596A8A42FAD17047034B596A0A00986A9C
:10162000596A9142FAD170470040054070B50400F4
:101630000D00174A536A1900966A536A8B42FAD111
:101640003000190024184D41AB4216D813D0104B6E
:101650002A005B6A9D4203D90D494B6A9342FCD331
:10166000934207D10A4A02E0516A994202D1916A33
:10167000A142F9D370BDA642E9D9054B5B6A1C00B3
:101680005A1CEFD0012201246442E5175242E3E7DD
:1016900000400540064A536A9942FCD807D1044BE2
:1016A00002E05A6A914202D19A6A9042F9D8704790
:1016B00000400540F8B5040006200D0000F0B4F924
:1016C000002844D0374B3849E3185A1E93418022F2
:1016D000120494465B429B0D344A9B05634413609D
:1016E000334A136018000A689043FBD12D4B314AEE
:1016F000E31859424B4180215B0049000620995272
:1017000000F092F92900C00000F060FB0130C3092D
:101710001ED1402701226262A362266BF30722D406
:10172000E36A254B0620E51800232B60266300F0B2
:101730007BF93900800000F049FB7023E26A5A40CF
:101740000E3313402B601D4B23630323A364F8BDAA
:101750001B4A93421ED900231A4A1B4F6262A3629E
:10176000266BF307DCD5194B144AE3181A60656A37
:10177000A36A0620AD01ED1800F056F9144900F0F7
:1017800025FBAD020100280000F020FB0021FFF73F
:101790004DFFC5E74006800E9F011A003F18030069
:1017A000B9E7C0460080FCBF08C0004000E0004030
:1017B00000F00040D00700202C10000001030000C2
:1017C000FEFF0000FFFF0000C0FF3F0030300000C0
:1017D0004E0E00000539013AF8B5D2004C01050063
:1017E0001443002B06D0013B5A4253419B00234334
:1017F00002241C432E6BF30708D46E23EA6A62406E
:1018000013400E4AAA1813602E63F8BD0C4B0D4A04
:10181000EB181A606F6AAB6A0620BF01FF1800F070
:1018200003F9094900F0D2FABF020100380000F0C4
:10183000CDFA0021FFF7FAFEDFE7C0462C100000CA
:1018400030300000010300004E0E0000F8B5DE4607
:101850004E4657464546E0B58B4605000A991800A6
:10186000160000F0B3FA0A9B6C001F02324B641999
:101870009C46A4006444636881469F4200D9676027
:101880002B1FDBB29846012B30D9C02380229B014D
:10189000E31812011A60294BAD0059599A460029E4
:1018A0001BD17301E026226853401E40802342462C
:1018B0005B01E3181E60012A30D9802380229B013E
:1018C000E31812011A6053464A4667605A51F0BC49
:1018D000BB46B246A946A046F8BD586900F076FA64
:1018E000013043001B18033BFDD2DAE75B46012BB6
:1018F000CBD1C02303229B01E3181A60023AA368EC
:101900001A42FCD07301E0262268AD0053401E400D
:1019100080230A4A5B019246E3181E605A462168FA
:10192000514003220A401A6001225B469A40A36894
:101930001A42FCD0C1E7C046008000406C0700207E
:10194000F0B546464F46D646C0B51F00344B44005E
:101950009C462418A4006444636888461600FF2B44
:1019600002D880235B006360031FDBB29A46012B21
:1019700030D9C02380229B01E31812011A60294B41
:1019800085005959994600291BD17301E026226828
:1019900053401E40802352465B01E3181E60012A1B
:1019A00030D9802380229B01E31812011A60802322
:1019B0005B0063604B465F51E0BCBA46B146A84647
:1019C000F0BD586900F002FA013043001B18033BD8
:1019D000FDD2DAE74346012BCBD1C02303229B0182
:1019E000E3181A60023AA3681A42FCD07301E02699
:1019F0002268850053401E4080230A4A5B019146BD
:101A0000E3181E6042462168514003220A401A60D2
:101A1000012342469340A2681342FCD0C1E7C0466E
:101A2000008000406C070020014B8000C0587047C8
:101A30006C070020F8B5040021481E0017000D00B7
:101A400000F0C4F90100380000F0C0F9069B36042C
:101A50001B031E432368002B20DB1A4B1A49E31893
:101A60005A1E93418022920194465B421B0B174AF7
:101A70001B0363441360164A13601F000A689743F0
:101A8000FBD1144B2560E2182123A060136023686A
:101A9000002BFCDA0823E6601360F8BD3F232268C0
:101AA0001340AB42D9D1A3681B051B0D8342D4D18F
:101AB000EE22E368D2021340B342CED1EDE7C04636
:101AC000001BB7000040FDBF08C0004000E0004020
:101AD00000F00040043000008023024A9B000B43CA
:101AE000D362704700800540002310B50100988A3A
:101AF0001B8B984710BDC046162310B501001888EF
:101B000002331B88984710BDF8B54746CE4680B5CE
:101B10000F1E18D014239946043304000025012613
:101B200098464B461888434621681B88984701C44D
:101B3000431E984101350640AF42F2D13000C0BC8F
:101B4000B946B046F8BD0126F8E7C046AA23064AC2
:101B50001B0113608D235B00D3600449044B1960A3
:101B60005368002BFCDA70470040024000B0FA00D6
:101B7000006002407047C04610B50148FEF712FFF2
:101B8000AC29001070B5074D074EB54209D20024AC
:101B9000013E761BB60808CD984723000134B342B6
:101BA000F9D170BDC0280010FC280010054B064A72
:101BB00006491A60064A074B1A6010000B689843E2
:101BC000FBD1704700E00040BFCDFBFE08C00040E5
:101BD000FE7F3C0000F00040044BDB6C002B03D187
:101BE0008022034BD2021A607047C0460000115099
:101BF0004C201150044A054B1A60054A1368DB015A
:101C00008033FBD17047C046FFFFFF0100F000406A
:101C100008C000404022034B9A675A671A67DA6689
:101C20007047C04600F0014010B5FEF701FF10BD3F
:101C3000F8B52749274C284D641AA6103200302EDB
:101C400000D930222800920000F0BEFABC2C3BD80C
:101C500030202F232C196407204A801BE40F9B1B84
:101C6000052B16D93700002C02D0B300771CEA50A0
:101C7000001B33199B004108EB18C900C9181A60F2
:101C80005A6008339942FAD1012303421CD0984389
:101C9000C619B300EA50731C2F2E15D09B00EA50D2
:101CA000B31C2E2E10D09B00EA50F31C2D2E0BD00F
:101CB0009B00EA50331D2C2E06D09B00EA50731D6A
:101CC0002B2E01D09B00EA50054B9D60F8BDC0460D
:101CD00000010010C001001000000020C101001030
:101CE00000ED00E0002310B5294C82B0A367FFF798
:101CF0002DFF0122274B1A60636C012BFCD10322BC
:101D0000254B1A60224A936B012BFCD101330093BF
:101D10000121224A22480433FFF78CFE05230121CA
:101D20000093204A2048FFF785FE0022022104206C
:101D30001E4BFFF705FE0022012105201C4BFFF77B
:101D4000FFFD0022002107201A4BFFF7F9FD0022BA
:101D500000210820174BFFF7F3FD8023DB000093E1
:101D6000002200210920134BFFF770FD0022104BC9
:101D700000210620FFF7E4FD0420FFF755FE0E4981
:101D800000F024F801000020FFF7A6FE02B010BD0D
:101D9000008000403CB0004030B00040002F685947
:101DA00000800240008C864700C00240001BB70044
:101DB00040597307006CDC0240420F0001480421C7
:101DC000014B184700020020091B0010114A936FB5
:101DD0009B0813D210665166002905D0FFE7FFE784
:101DE000FFE7516F106F704704B5002801D0002045
:101DF000C04300F055FD002104BDC046F0B5146E8F
:101E0000556E576F166FFFF7E5FF146655665767F7
:101E10001667F0BD000000D0132370B51D78012DAA
:101E200019D014DD1F48FFF767FE06001E48FFF7B4
:101E300063FE1E4C80223100200000F0C5F9022D07
:101E40002DD01B48FFF750FE1A4B186070BD1A4B7F
:101E5000164CA364F5E7184B144C23606360A36031
:101E6000E36023616361A361E36123626362A36250
:101E7000E36223636363A363E36323646364A36430
:101E8000E36423656365A365E36523666366A36610
:101E9000E36623676367A367E367A364D1E7064B41
:101EA000A364CEE75344000053460000C80300205B
:101EB0004C330000C8070020BD1E001007B5604667
:101EC00001880A0A0230DF2AFAD1C9B2820804D393
:101ED000028840880004104300E00068014A505026
:101EE000039007BDC803002000220B150AD410B5CB
:101EF000944600F031F81414013400DA0021CB17B5
:101F0000144C20470020002170476244343A0CD41E
:101F10000C2A07DA04009140904052422032D4400B
:101F2000214310BDD843D94310BD203207D40C46FD
:101F30009440524220321141D040204310BD08004D
:101F4000C917203203D452422032104110BD18006C
:101F5000190010BD0B1F00100A0DCC0F531E1B05DE
:101F6000C91A520503D3C943404200D30131520D6F
:101F700003D0531CDB0A07D0121B00206400611C35
:101F800089078912803A1203014BD21A7047000068
:101F9000FF03000051434343C9188C46110C83B220
:101FA0004B4310B4040C614392B280B2504362437D
:101FB0001C041B0C001910BC59411304120CC0184E
:101FC00051416144704700004840414048400E4B39
:101FD0005B6818470C4B1B6818470C4A936F9B08AB
:101FE00002D2094BDB681847F0B5146E556E576F77
:101FF000166FFFF7F6FF054A1466556657671667B2
:10200000F0BD014B9B681847C8040020000000D0B9
:10201000491A002808D1084670470000C10FC907B7
:1020200000D54042002817D0F44603B40B4B1B6880
:10203000984706BC81409E384042803107D20B064B
:1020400007D04900490AC0051043084360470130E2
:10205000F8E7490A8902F5E770470000C807002041
:10206000014B5B6A18470000C8040020034B5B6FFC
:10207000FC46184774DF1B2100100000C804002034
:10208000132310B512481C78FFF736FD0100012C10
:102090000AD003DD80220F4800F096F80E48FFF7C3
:1020A00023FD0E4B186010BD0A4C5422200000F096
:1020B0008BF80B4B6365A365E36523666366A366D4
:1020C000E36623676367A367E3672362E361E5E78A
:1020D00053460000C80400204C330000C80700200D
:1020E000E520001007B5604601880A0A0230DF2AA1
:1020F000FAD1C9B2820804D3028840880004104390
:1021000000E00068014A5050039007BDC804002059
:10211000002100B500F004F845E00021C31518D4F3
:1021200010B58C46C3174000020E0BD0FF2A0DD00D
:10213000511E7F3A0906401A5840C01A0111000783
:10214000054C204700200100030010BDD843D943AF
:1021500010BD0020002170470B1F00106244343A6C
:102160000CD40C2A07DA04009140904052422032ED
:10217000D440214310BDD843D94310BD203207D4E9
:102180000C469440524220321141D040204310BDB1
:102190000800C917203203D452422032104110BD2A
:1021A0001800190010BDCA179A4200D100BDD843CB
:1021B0000121C907414000BD01480421014B1847D6
:1021C00010020020091B0010014B5B68184700003B
:1021D0001002002010B5002800D110BD00F032F927
:1021E000FBE7C04610B5094A0300146884B0002C10
:1021F00008D0012200910648524203A9A0470120BD
:1022000004B010BD00F068F90020F9E79C07002039
:10221000D521001000BEFDE710B5FFF7FBFFC0465B
:1022200070B5FFF7AFFC074D074EB54209D2002449
:10223000013E761BB60808CD984723000134B3420F
:10224000F9D170BDFC28001004290010030010B55E
:10225000080011001B68984710BDC046F0B5C6467F
:1022600000B5437D07000C001600002B46D0002A65
:1022700017DD0B780A2B24D000239846012E13D0AB
:1022800001252900635C01350A2B26D0B542F8D11F
:10229000464509DCA419013C23780D3B5A425341C1
:1022A0003B7580BCB846F0BD4346E018A419F11A4E
:1022B000013C3B68984723780D3B5A4253413B759C
:1022C000EFE7037D002BD7D102210F483B689847E9
:1022D000012EDFD001239846D2E7631E5B5C0D2BF5
:1022E000D4D0884504DA4346C91AE0183B689847B9
:1022F000022105483B68A8469847C7E703681100D4
:1023000020009847CDE7C046782A0010F0B5454632
:10231000DE464E465746E0B583B091461C008046E7
:102320000D00FFF779F90023304A12184B41002BBA
:1023300002DA01222E4B52422E4908008A4600F052
:10234000B7FA07006B1C03D1404600F00FFA0500F6
:10235000002C27D0284E294B1C68002C18D04B4647
:10236000002B21D1264B994602E02469002C0FD086
:102370002368002BF9D04B461B68002B01D09C42F0
:10238000F3D120002A004146B0472469002CEFD148
:10239000002F26D1280003B0F0BCBB46B246A946A8
:1023A000A046F0BD174ED6E7154B99460A239B462B
:1023B00002E02469002CEBD02368002BF9D04B46B7
:1023C0001B68002B01D0A342F3D12A004146200014
:1023D000B0476B465A462000DA71D91D0122B0473A
:1023E000E7E7504600F054FAD4E7C04640420F00F9
:1023F000FFFFFF7F3C0200205D22001094070020B9
:10240000980700204D2200100A4A1368002B05D1BE
:102410000CE01A001B691032002B07D08342F8D160
:10242000002902D118691060196170470029FCD099
:102430001060FAE79407002010B500F039F9012088
:1024400010BDC046F0B5CE46474680B583B06B465A
:102450000600DD1D2870FFF7DFF80023194A121867
:102460004B41002B02DA0122174B52421749080058
:10247000884600F01DFA164B81461C68002C14D0CB
:10248000144F02E02469002C0FD02368002BF9D0F0
:102490003B68002B01D09C42F4D12000012229008E
:1024A000FFF7DCFE2469002CEFD14B46002B05D151
:1024B000300003B0C0BCB946B046F0BD404600F0A5
:1024C000E7F9F5E740420F00FFFFFF7F3C020020E5
:1024D000940700209807002070B5040000F046F92A
:1024E00001230100050001222000FFF70FFF084B28
:1024F0001C68002C06D06368002B05D0984724691F
:10250000002CF8D1280070BD2469002CF3D1F9E724
:1025100094070020F0B5002915DD0E4B0D271A6831
:102520000D4B0E4CD3185D426B41451820215B00CA
:102530001E5F0478A64207D093691942FCD101308E
:102540001460A842F5D1F0BD93691942FCD117601F
:10255000F2E7C046D40700200080FCBFD00700206F
:10256000204B70B504000D1E1E682ADD00201021CE
:102570001D4B013C1A689369194214D101309369CB
:102580001942FCD1136823548542F4D1002E08D09F
:1025900050239363516B183B0B4014498C466244A3
:1025A0001360280070BD002E08D050239363516B38
:1025B000183B0B400D498C46624413600028F1D152
:1025C0000CE0002E0AD05022074B1B689A63596B0F
:1025D000183A0A4005498C4663441A600320404279
:1025E000E0E7C04660070020D40700203410000058
:1025F000064B10B51B68002B06D00021044A126858
:102600009163044A1068984710BDC04660070020D7
:10261000D4070020640700200822034B19688B6947
:102620001A42FCD17047C046D4070020F8B51A4FB3
:102630001A4B3A680500D31858424341184E1433D8
:102640001C003368002D02D0002B0FD0F8BD002BEA
:10265000FCD0002120009563FEF70AFA2000114902
:10266000FEF742FA104B35601D60EFE70E4B20007D
:1026700019600C493560FEF70DFA01212000FEF7C4
:10268000F7F950223B689A63596B183A0A40074998
:102690008C4663441A60D9E7D40700200080FCBF51
:1026A00060070020F12500106407002034100000AE
:1026B0000D4B10B51B780D4B0D4C1B780D4B0221AB
:1026C0001B780D4B00202360FEF71EF9022101202C
:1026D000FEF71AF9E12120684902FEF7EBFF01211C
:1026E0000648FFF791FE10BDC02B0010BC2B001058
:1026F000D4070020B82B0010004003402002002027
:1027000010B5010000230022002000F05DF810BD8C
:10271000044B1B1803205B78184001384342584192
:102720007047C046982A0010034B1A5C03231340DD
:10273000012B00D120307047992A001070B5074C4A
:10274000074D641BA41005D0013CA300EB5898472B
:10275000002CF9D100F098F870BDC0460429001093
:10276000042900107047C0467047C04610B5830763
:102770000AD00300032102E001330B4205D01A788E
:10278000002AF9D1181A10BD030019680C4A0D4C23
:102790008A188A4322420FD15968094A04338A1899
:1027A0008A43224208D15968054A04338A188A4369
:1027B0002242F1D000E001331A78002AFBD1E1E790
:1027C000FFFEFEFE80808080F0B5D6464F4646462E
:1027D0009846244BC0B5060018689A460F009146EB
:1027E000FFF7C0FF204B1D68002D32D053466C68A8
:1027F00018681F2C30DC002E0CD1631C0234A4009E
:102800006B606751FFF7B0FF0020E0BCBA46B146ED
:10281000A846F0BD49468822A300EB189950C42170
:1028200049008C46AC446146873AA240096891460B
:102830001143624611608421424649005A50022EDB
:10284000DBD129004A468D31FF310B6813430B6001
:10285000D3E7064D1D60C9E7FFF786FF0120404220
:10286000D3E7C04638020020C8050020CC05002070
:10287000034B10B5002B02D00248FFF741FF10BDFB
:10288000000000003D270010F8B5C0460000000021
:1028900001B40248844601BC604700BF59010020D2
:1028A00001B40248844601BC604700BF810100209A
:1028B00001B40248844601BC604700BFC10000204B
:1028C000AD1B0010D91B0010BD1D0010B921001058
:1028D000191E001081200010E51C0010F51B0010CF
:1028E000151C0010291C0010810D0010311C001057
:1028F00001110010751B00104D0A00107128001006
:042900008902001038
:102904000A7561727420636F6E6E656374696F6EAD
:1029140020696E697469616C697365640A000000FA
:102924000A6669727374206C6F6F70206C656674CC
:102934000A0000000A65786974696E672C2074685F
:10294400616E6B7320666F72207573696E670A001F
:102954000A676F6F64206C65747465720A00000006
:102964000A626164206C65747465720A0000000078
:102974000A2A2A2A2050414E4943202A2A2A0A0098
:102984000A000000486172647761726520616C61BD
:10299400726D20256420616C726561647920636CBA
:1029A40061696D656400000048617264206173733D
:1029B4006572740052656C6561736500626F6F7453
:1029C400325F77323571303830000000322E322ECB
:1029D400300000007069636F000000006D61696E73
:1029E400000000004F637420313320323032350050
:1029F4005541525420737464696E00005541525419
:102A0400207374646F757400554152542073746458
:102A1400696E202F207374646F7574000C060309AB
:102A240006005250D3F07542B829001006005250E7
:102A3400E182887FC029001006005250ABB3605376
:102A4400D029001006005250BBFF3CB6D829001014
:102A540006005250861C0302E02900100600525062
:102A64005422A29DE829001005005250DE65F46846
:102A7400482D00100D0A00000600525053B4F4A172
:102A84000C2A001008005250120000000800525096
:102A94009210000000202020202020202020282820
:102AA400282828202020202020202020202020200A
:102AB400202020202088101010101010101010104A
:102AC400101010101004040404040404040404107A
:102AD4001010101010104141414141410101010108
:102AE40001010101010101010101010101010101D2
:102AF40010101010101042424242424202020202DE
:102B040002020202020202020202020202020202A1
:102B14001010101020000000000000000000000051
:102B240000000000000000000000000000000000A1
:102B34000000000000000000000000000000000091
:102B44000000000000000000000000000000000081
:102B54000000000000000000000000000000000071
:102B64000000000000000000000000000000000061
:102B74000000000000000000000000000000000051
:102B84000000000000000000000000000000000041
:082B9400000000000000000039
:102B9C00242A0010302A00103C2A0010482A001069
:102BAC00542A0010602A00106C2A0010902A001081
:082BBC00882A00107C2A001099
:102BC400F0B5C646150000B504001E000268EFF318
:102BD400108172B61368002BFCD0BFF35F8F0423FF
:102BE400E3562268002B2BDBBFF35F8F00201060BD
:102BF40081F31088D02212061278002752B2904630
:102C04009A420ED1002080BCB846F0BDBFF35F8F5E
:102C1400176081F310882800310000F035F800288F
:102C2400F0D12268EFF3108172B61368002BFCD048
:102C3400BFF35F8F237922687F2BE7D9434602E0F5
:102C4400D0231B061B682371BFF35F8F002313601F
:102C540081F310880120D6E70268EFF3108172B681
:102C64001368002BFCD0BFF35F8FFF23037103684D
:102C7400BFF35F8F00221A6081F3108840BF704752
:102C84007047C0460000000001B40248844601BCFD
:102C9400604700BFE91400101000000000000000AD
:102CA400000001000000000000000000000002001D
:102CB400000000000000000000000300000000000D
:102CC400000000000000FF000000000001B548689B
:102CD40001318E460047704609380149884701BDD5
:102CE400BD0C001000000000000000000000000007
:102CF4000000000000000000480200200000000066
:102D0400503300004C3300005433000052330000B1
:102D14004D5300004D430000533400004334000081
:102D24001525001019260010612500102D2600100D
:102D340000000000000100005C070020000000000B
:042D4400000000008B
:04000005100001E9FD
:00000001FF
